{
  "contractName": "byte_test",
  "abi": [
    {
      "constant": false,
      "inputs": [
        {
          "name": "",
          "type": "uint8"
        }
      ],
      "name": "returnseed",
      "outputs": [
        {
          "name": "",
          "type": "bytes"
        }
      ],
      "payable": false,
      "stateMutability": "nonpayable",
      "type": "function"
    },
    {
      "constant": false,
      "inputs": [
        {
          "name": "data",
          "type": "bytes"
        }
      ],
      "name": "setseed",
      "outputs": [],
      "payable": false,
      "stateMutability": "nonpayable",
      "type": "function"
    },
    {
      "constant": true,
      "inputs": [
        {
          "name": "i",
          "type": "uint8"
        }
      ],
      "name": "extractSelectorData",
      "outputs": [
        {
          "name": "",
          "type": "uint8"
        }
      ],
      "payable": false,
      "stateMutability": "view",
      "type": "function"
    },
    {
      "constant": true,
      "inputs": [
        {
          "name": "i",
          "type": "uint8"
        },
        {
          "name": "j",
          "type": "uint8"
        }
      ],
      "name": "extractFieldState",
      "outputs": [
        {
          "name": "",
          "type": "uint8"
        }
      ],
      "payable": false,
      "stateMutability": "view",
      "type": "function"
    },
    {
      "constant": false,
      "inputs": [],
      "name": "initPlayfield",
      "outputs": [],
      "payable": false,
      "stateMutability": "nonpayable",
      "type": "function"
    }
  ],
  "bytecode": "0x60806040526009600160006101000a81548160ff021916908360ff16021790555034801561002c57600080fd5b506105be8061003c6000396000f3fe608060405234801561001057600080fd5b50600436106100575760003560e01c80633e870b481461005c5780635311397a1461006657806389d4dcb414610110578063c0c46b6f146101cb578063d8ff95d814610216575b600080fd5b61006461026e565b005b6100956004803603602081101561007c57600080fd5b81019080803560ff169060200190929190505050610371565b6040518080602001828103825283818151815260200191508051906020019080838360005b838110156100d55780820151818401526020810190506100ba565b50505050905090810190601f1680156101025780820380516001836020036101000a031916815260200191505b509250505060405180910390f35b6101c96004803603602081101561012657600080fd5b810190808035906020019064010000000081111561014357600080fd5b82018360208201111561015557600080fd5b8035906020019184600183028401116401000000008311171561017757600080fd5b91908080601f016020809104026020016040519081016040528093929190818152602001838380828437600081840152601f19601f820116905080830192505050505050509192919290505050610415565b005b6101fa600480360360208110156101e157600080fd5b81019080803560ff16906020019092919050505061042f565b604051808260ff1660ff16815260200191505060405180910390f35b6102526004803603604081101561022c57600080fd5b81019080803560ff169060200190929190803560ff1690602001909291905050506104a6565b604051808260ff1660ff16815260200191505060405180910390f35b600080905060005b600160009054906101000a900460ff1660ff1681101561036d5760005b600160009054906101000a900460ff1660ff1681101561035f5760008360ff168154600181600116156101000203166002900481106102ce57fe5b8154600116156102ed5790600052602060002090602091828204019190065b9054901a7f0100000000000000000000000000000000000000000000000000000000000000026002836009811061032057fe5b01826009811061032c57fe5b602091828204019190066101000a81548160ff021916908360f81c02179055506001830192508080600101915050610293565b508080600101915050610276565b5050565b606060008054600181600116156101000203166002900480601f0160208091040260200160405190810160405280929190818152602001828054600181600116156101000203166002900480156104095780601f106103de57610100808354040283529160200191610409565b820191906000526020600020905b8154815290600101906020018083116103ec57829003601f168201915b50505050509050919050565b806000908051906020019061042b9291906104ed565b5050565b60008060008360ff1681546001816001161561010002031660029004811061045357fe5b8154600116156104725790600052602060002090602091828204019190065b9054901a7f01000000000000000000000000000000000000000000000000000000000000000260f81c905080915050919050565b60008060028460ff16600981106104b957fe5b018360ff16600981106104c857fe5b602091828204019190069054906101000a900460f81b60f81c90508091505092915050565b828054600181600116156101000203166002900490600052602060002090601f016020900481019282601f1061052e57805160ff191683800117855561055c565b8280016001018555821561055c579182015b8281111561055b578251825591602001919060010190610540565b5b509050610569919061056d565b5090565b61058f91905b8082111561058b576000816000905550600101610573565b5090565b9056fea165627a7a723058202ac35c33bc3f2ea43551661603b17f124d8817b2c44b7c8928c400ffc910c0600029",
  "source": "pragma solidity >=0.4.21 <0.6.0;\n\ncontract byte_test {\n\n\nbytes fullseed;\n\n//function setByte(bytes16 x, uint8 i) public returns (bytes1) {\n    //bytes16 mask = bytes16(0xff) << i*8;\n   // return bytes1(x >> i*8);\n    //return (x & ~mask) | (bytes16(b) >> (15-i)*8);\n//}\nuint8 size = 9;\nbytes1[9][9] playfield;\n\n\nfunction returnseed(uint8)public returns (bytes memory){\n    return fullseed;\n    }\n\n\nfunction setseed(bytes memory data)public{\n    fullseed = data;\n    }\n\n/*function extractSelector (bytes16 data, uint8 i) public view returns (uint8) {\n        uint8 sel = uint8(data[i]);\n        return sel;\n    }*/\n\nfunction extractSelectorData(uint8 i)public view returns(uint8){\n        uint8 sel = uint8(fullseed[i]);\n        return sel;\n    }\n\nfunction extractFieldState(uint8 i, uint8 j)public view returns(uint8){\n        uint8 sel = uint8(playfield[i][j]);\n        return sel;\n    }\n\nfunction initPlayfield()public{\n        uint8 counter = 0;\n        for (uint i; i < size; i++) {\n            for (uint b; b < size; b++) {\n            playfield[i][b] = fullseed[counter];\n            counter = counter + 1;\n        }\n    }\n}\n\n\n/// [\"0x00\",\"0xaa\", \"0xff\",\"0x00\",\"0xaa\", \"0xff\",\"0x00\",\"0xaa\", \"0xff\",\"0x00\",\"0xaa\", \"0xff\",\"0x00\",\"0xaa\", \"0xff\", \"0xff\"]\n////[\"0x00\",\"0x01\",\"0x00\",\"0x00\",\"0x00\",\"0x01\",\"0x01\",\"0x00\",\"0x01\",\"0x00\",\"0x01\",\"0x00\",\"0x01\",\"0x00\",\"0x00\",\"0x00\",\"0x01\",\"0x01\",\"0x00\",\"0x01\",\"0x00\",\"0x01\",\"0x00\",\"0x01\",\"0x00\",\"0x00\",\"0x01\",\"0x00\",\"0x00\",\"0x00\",\"0x01\",\"0x01\",\"0x00\",\"0x01\",\"0x00\",\"0x01\",\"0x00\",\"0x01\",\"0x00\",\"0x00\",\"0x00\",\"0x01\",\"0x01\",\"0x00\",\"0x01\",\"0x00\",\"0x01\",\"0x00\",\"0x01\",\"0x00\",\"0x00\",\"0x01\",\"0x00\",\"0x00\",\"0x00\",\"0x01\",\"0x01\",\"0x00\",\"0x01\",\"0x00\",\"0x01\",\"0x00\",\"0x01\",\"0x00\",\"0x00\",\"0x00\",\"0x01\",\"0x01\",\"0x00\",\"0x01\",\"0x00\",\"0x01\",\"0x00\",\"0x01\",\"0x00\",\"0x00\",\"0x01\",\"0x00\",\"0x00\",\"0x00\",\"0x01\",\"0x01\",\"0x00\",\"0x01\",\"0x00\",\"0x01\",\"0x00\",\"0x01\",\"0x00\",\"0x00\",\"0x00\",\"0x01\",\"0x01\",\"0x00\",\"0x01\",\"0x00\",\"0x01\",\"0x00\",\"0x01\",\"0x00\"]\n//  [\"0x00\",\"0x01\", \"0xff\",\"0x00\",\"0xaa\", \"0xff\",\"0x00\",\"0xaa\", \"0xff\",\"0x00\",\"0xaa\", \"0xff\",\"0x00\",\"0xaa\", \"0xff\", \"0xff\"],1\n\n}\n",
  "sourcePath": "/home/p/Documents/dev/cellularmarkets/contracts/byte_test.sol",
  "compiler": {
    "name": "solc",
    "version": "0.5.8+commit.23d335f2.Emscripten.clang"
  },
  "schemaVersion": "3.0.10",
  "updatedAt": "2019-07-21T14:30:31.196Z",
  "devdoc": {
    "methods": {}
  },
  "userdoc": {
    "methods": {}
  }
}