{
  "contractName": "GameOfLife",
  "abi": [
    {
      "constant": true,
      "inputs": [],
      "name": "owner",
      "outputs": [
        {
          "name": "",
          "type": "address"
        }
      ],
      "payable": false,
      "stateMutability": "view",
      "type": "function"
    },
    {
      "inputs": [],
      "payable": false,
      "stateMutability": "nonpayable",
      "type": "constructor"
    },
    {
      "constant": true,
      "inputs": [],
      "name": "random",
      "outputs": [
        {
          "name": "",
          "type": "uint8"
        }
      ],
      "payable": false,
      "stateMutability": "view",
      "type": "function"
    },
    {
      "constant": true,
      "inputs": [],
      "name": "get_state",
      "outputs": [
        {
          "name": "",
          "type": "uint8[100]"
        }
      ],
      "payable": false,
      "stateMutability": "view",
      "type": "function"
    }
  ],
  "bytecode": "0x608060405234801561001057600080fd5b50336000806101000a81548173ffffffffffffffffffffffffffffffffffffffff021916908373ffffffffffffffffffffffffffffffffffffffff160217905550600a600560006101000a81548160ff021916908360ff160217905550600080600090505b606481101561010a5761008c61011160201b60201c565b9150607d8260ff1610156100ce576000600182606481106100a957fe5b602091828204019190066101000a81548160ff021916908360ff1602179055506100fd565b60018082606481106100dc57fe5b602091828204019190066101000a81548160ff021916908360ff1602179055505b8080600101915050610075565b5050610154565b600060fb424460405160200180838152602001828152602001925050506040516020818303038152906040528051906020012060001c8161014e57fe5b06905090565b610222806101636000396000f3fe608060405234801561001057600080fd5b50600436106100415760003560e01c80635ec01e4d1461004657806386b301ad1461006a5780638da5cb5b146100b0575b600080fd5b61004e6100fa565b604051808260ff1660ff16815260200191505060405180910390f35b61007261013d565b6040518082606460200280838360005b8381101561009d578082015181840152602081019050610082565b5050505090500191505060405180910390f35b6100b86101ae565b604051808273ffffffffffffffffffffffffffffffffffffffff1673ffffffffffffffffffffffffffffffffffffffff16815260200191505060405180910390f35b600060fb424460405160200180838152602001828152602001925050506040516020818303038152906040528051906020012060001c8161013757fe5b06905090565b6101456101d3565b60016064806020026040519081016040528092919082606480156101a4576020028201916000905b82829054906101000a900460ff1660ff168152602001906001019060208260000104928301926001038202915080841161016d5790505b5050505050905090565b6000809054906101000a900473ffffffffffffffffffffffffffffffffffffffff1681565b60405180610c80016040528060649060208202803883398082019150509050509056fea165627a7a7230582036e3e9e8b7c8817c962c686f413a550fa800fa71e68dd4fc6f0e8ff522c53b380029",
  "source": "pragma solidity >=0.4.21 <0.6.0;\n\ncontract GameOfLife {\n  address public owner;\n  //bytes1[100] the_game;\n  uint8 [100] the_game;\n  uint8 scale;\n\n  constructor() public {\n    owner = msg.sender;\n    scale = 10;\n    uint8 pseud_rand;\n    for (uint i=0; i< the_game.length; i++) {\n        pseud_rand = random();\n        if (pseud_rand < 125){\n            the_game[i] = 0;\n        }\n        else{\n           the_game[i] = 1; \n        }\n    }\n  }\n\n    function random() public view returns (uint8) {\n       //return uint8(uint256(keccak256(block.timestamp, block.difficulty))%251);\n       return  uint8(uint256(keccak256(abi.encodePacked(block.timestamp, block.difficulty)))%251);\n   }\n\n    function get_state() public view returns (uint8[100] memory) {\n       //return uint8(uint256(keccak256(block.timestamp, block.difficulty))%251);\n       return  the_game;\n   }\n}   ",
  "sourcePath": "/home/p/Documents/dev/cellularmarkets/contracts/GameOfLife.sol",
  "compiler": {
    "name": "solc",
    "version": "0.5.8+commit.23d335f2.Emscripten.clang"
  },
  "schemaVersion": "3.0.10",
  "updatedAt": "2019-07-21T14:30:31.194Z",
  "devdoc": {
    "methods": {}
  },
  "userdoc": {
    "methods": {}
  }
}